{
  "_format": "hh-sol-artifact-1",
  "contractName": "BlockCart",
  "sourceName": "contracts/BlockCart.sol",
  "abi": [
    {
      "inputs": [],
      "stateMutability": "nonpayable",
      "type": "constructor"
    },
    {
      "anonymous": false,
      "inputs": [
        {
          "indexed": true,
          "internalType": "address",
          "name": "_from",
          "type": "address"
        },
        {
          "indexed": false,
          "internalType": "uint256",
          "name": "_id",
          "type": "uint256"
        }
      ],
      "name": "AddFood",
      "type": "event"
    },
    {
      "anonymous": false,
      "inputs": [
        {
          "indexed": true,
          "internalType": "address",
          "name": "_from",
          "type": "address"
        },
        {
          "indexed": false,
          "internalType": "uint256",
          "name": "_orderId",
          "type": "uint256"
        }
      ],
      "name": "CancelOrder",
      "type": "event"
    },
    {
      "anonymous": false,
      "inputs": [
        {
          "indexed": true,
          "internalType": "uint256",
          "name": "_id",
          "type": "uint256"
        },
        {
          "indexed": false,
          "internalType": "uint256",
          "name": "_foodId",
          "type": "uint256"
        }
      ],
      "name": "ChangeActiveFood",
      "type": "event"
    },
    {
      "anonymous": false,
      "inputs": [
        {
          "indexed": true,
          "internalType": "address",
          "name": "_address",
          "type": "address"
        },
        {
          "indexed": false,
          "internalType": "string",
          "name": "_localAddress",
          "type": "string"
        }
      ],
      "name": "ChangeAddress",
      "type": "event"
    },
    {
      "anonymous": false,
      "inputs": [
        {
          "indexed": true,
          "internalType": "address",
          "name": "_from",
          "type": "address"
        },
        {
          "indexed": false,
          "internalType": "uint256",
          "name": "_orderId",
          "type": "uint256"
        }
      ],
      "name": "CompleteOrder",
      "type": "event"
    },
    {
      "anonymous": false,
      "inputs": [
        {
          "indexed": true,
          "internalType": "address",
          "name": "_from",
          "type": "address"
        }
      ],
      "name": "CreateCustomer",
      "type": "event"
    },
    {
      "anonymous": false,
      "inputs": [
        {
          "indexed": true,
          "internalType": "address",
          "name": "_from",
          "type": "address"
        },
        {
          "indexed": true,
          "internalType": "address",
          "name": "_to",
          "type": "address"
        },
        {
          "indexed": false,
          "internalType": "uint256",
          "name": "_orderId",
          "type": "uint256"
        },
        {
          "indexed": false,
          "internalType": "uint256",
          "name": "_foodId",
          "type": "uint256"
        }
      ],
      "name": "CreateOrder",
      "type": "event"
    },
    {
      "anonymous": false,
      "inputs": [
        {
          "indexed": true,
          "internalType": "address",
          "name": "_from",
          "type": "address"
        },
        {
          "indexed": false,
          "internalType": "string",
          "name": "_name",
          "type": "string"
        }
      ],
      "name": "CreateRestaurant",
      "type": "event"
    },
    {
      "anonymous": false,
      "inputs": [
        {
          "indexed": true,
          "internalType": "address",
          "name": "_from",
          "type": "address"
        }
      ],
      "name": "DestroyRestaurant",
      "type": "event"
    },
    {
      "anonymous": false,
      "inputs": [
        {
          "indexed": true,
          "internalType": "address",
          "name": "_from",
          "type": "address"
        },
        {
          "indexed": false,
          "internalType": "uint256",
          "name": "_orderId",
          "type": "uint256"
        }
      ],
      "name": "GetPackage",
      "type": "event"
    },
    {
      "anonymous": false,
      "inputs": [
        {
          "indexed": true,
          "internalType": "uint256",
          "name": "_id",
          "type": "uint256"
        }
      ],
      "name": "PayToCourrier",
      "type": "event"
    },
    {
      "anonymous": false,
      "inputs": [
        {
          "indexed": true,
          "internalType": "address",
          "name": "_from",
          "type": "address"
        },
        {
          "indexed": true,
          "internalType": "address",
          "name": "_to",
          "type": "address"
        },
        {
          "indexed": false,
          "internalType": "uint256",
          "name": "_orderId",
          "type": "uint256"
        }
      ],
      "name": "Refund",
      "type": "event"
    },
    {
      "anonymous": false,
      "inputs": [
        {
          "indexed": true,
          "internalType": "uint256",
          "name": "_id",
          "type": "uint256"
        },
        {
          "indexed": false,
          "internalType": "uint256",
          "name": "_fee",
          "type": "uint256"
        }
      ],
      "name": "UpdateOrderForCourrier",
      "type": "event"
    },
    {
      "inputs": [
        {
          "internalType": "uint256",
          "name": "_id",
          "type": "uint256"
        },
        {
          "internalType": "string",
          "name": "_name",
          "type": "string"
        },
        {
          "internalType": "string",
          "name": "_description",
          "type": "string"
        },
        {
          "internalType": "uint256",
          "name": "_price",
          "type": "uint256"
        }
      ],
      "name": "addFood",
      "outputs": [],
      "stateMutability": "nonpayable",
      "type": "function"
    },
    {
      "inputs": [
        {
          "internalType": "uint256",
          "name": "_orderId",
          "type": "uint256"
        }
      ],
      "name": "cancelOrder",
      "outputs": [],
      "stateMutability": "nonpayable",
      "type": "function"
    },
    {
      "inputs": [
        {
          "internalType": "uint256",
          "name": "_id",
          "type": "uint256"
        },
        {
          "internalType": "uint256",
          "name": "_foodId",
          "type": "uint256"
        }
      ],
      "name": "changeActiveFood",
      "outputs": [],
      "stateMutability": "nonpayable",
      "type": "function"
    },
    {
      "inputs": [
        {
          "internalType": "string",
          "name": "_defaultAddress",
          "type": "string"
        }
      ],
      "name": "changeAddress",
      "outputs": [],
      "stateMutability": "nonpayable",
      "type": "function"
    },
    {
      "inputs": [
        {
          "internalType": "uint256",
          "name": "_orderId",
          "type": "uint256"
        }
      ],
      "name": "completeOrder",
      "outputs": [],
      "stateMutability": "nonpayable",
      "type": "function"
    },
    {
      "inputs": [],
      "name": "contractName",
      "outputs": [
        {
          "internalType": "string",
          "name": "",
          "type": "string"
        }
      ],
      "stateMutability": "view",
      "type": "function"
    },
    {
      "inputs": [
        {
          "internalType": "address",
          "name": "",
          "type": "address"
        }
      ],
      "name": "courriers",
      "outputs": [
        {
          "internalType": "address",
          "name": "name",
          "type": "address"
        },
        {
          "internalType": "uint256",
          "name": "totalEarning",
          "type": "uint256"
        },
        {
          "internalType": "bool",
          "name": "isRegister",
          "type": "bool"
        },
        {
          "internalType": "uint256",
          "name": "successPercentage",
          "type": "uint256"
        }
      ],
      "stateMutability": "view",
      "type": "function"
    },
    {
      "inputs": [
        {
          "internalType": "string",
          "name": "_defaultAddress",
          "type": "string"
        },
        {
          "internalType": "string",
          "name": "_mail",
          "type": "string"
        }
      ],
      "name": "createCustomer",
      "outputs": [],
      "stateMutability": "nonpayable",
      "type": "function"
    },
    {
      "inputs": [
        {
          "internalType": "uint256",
          "name": "_restaurantId",
          "type": "uint256"
        },
        {
          "internalType": "uint256",
          "name": "_foodId",
          "type": "uint256"
        },
        {
          "internalType": "string",
          "name": "_orderDetail",
          "type": "string"
        }
      ],
      "name": "createOrder",
      "outputs": [],
      "stateMutability": "payable",
      "type": "function"
    },
    {
      "inputs": [
        {
          "internalType": "string",
          "name": "_name",
          "type": "string"
        },
        {
          "internalType": "string",
          "name": "_description",
          "type": "string"
        }
      ],
      "name": "createRestaurant",
      "outputs": [],
      "stateMutability": "nonpayable",
      "type": "function"
    },
    {
      "inputs": [
        {
          "internalType": "address",
          "name": "",
          "type": "address"
        }
      ],
      "name": "customers",
      "outputs": [
        {
          "internalType": "address",
          "name": "customerName",
          "type": "address"
        },
        {
          "internalType": "string",
          "name": "defaultAddress",
          "type": "string"
        },
        {
          "internalType": "string",
          "name": "mail",
          "type": "string"
        },
        {
          "internalType": "bool",
          "name": "isRegister",
          "type": "bool"
        }
      ],
      "stateMutability": "view",
      "type": "function"
    },
    {
      "inputs": [
        {
          "internalType": "uint256",
          "name": "_id",
          "type": "uint256"
        }
      ],
      "name": "destroyRestaurant",
      "outputs": [],
      "stateMutability": "nonpayable",
      "type": "function"
    },
    {
      "inputs": [
        {
          "internalType": "uint256",
          "name": "",
          "type": "uint256"
        },
        {
          "internalType": "uint256",
          "name": "",
          "type": "uint256"
        }
      ],
      "name": "foodsOfRestaurant",
      "outputs": [
        {
          "internalType": "uint256",
          "name": "foot_id",
          "type": "uint256"
        },
        {
          "internalType": "string",
          "name": "name",
          "type": "string"
        },
        {
          "internalType": "string",
          "name": "description",
          "type": "string"
        },
        {
          "internalType": "uint256",
          "name": "price",
          "type": "uint256"
        },
        {
          "internalType": "bool",
          "name": "isActive",
          "type": "bool"
        }
      ],
      "stateMutability": "view",
      "type": "function"
    },
    {
      "inputs": [
        {
          "internalType": "uint256",
          "name": "_orderId",
          "type": "uint256"
        }
      ],
      "name": "getpackage",
      "outputs": [],
      "stateMutability": "nonpayable",
      "type": "function"
    },
    {
      "inputs": [
        {
          "internalType": "uint256",
          "name": "",
          "type": "uint256"
        }
      ],
      "name": "orders",
      "outputs": [
        {
          "internalType": "address",
          "name": "courrierAddress",
          "type": "address"
        },
        {
          "internalType": "uint256",
          "name": "ordersAmount",
          "type": "uint256"
        },
        {
          "internalType": "uint256",
          "name": "orderId",
          "type": "uint256"
        },
        {
          "internalType": "uint256",
          "name": "foodId",
          "type": "uint256"
        },
        {
          "internalType": "uint256",
          "name": "restaurantId",
          "type": "uint256"
        },
        {
          "internalType": "address",
          "name": "restaurantAddress",
          "type": "address"
        },
        {
          "internalType": "address",
          "name": "customer",
          "type": "address"
        },
        {
          "internalType": "uint256",
          "name": "courrierFee",
          "type": "uint256"
        },
        {
          "internalType": "string",
          "name": "orderDetail",
          "type": "string"
        },
        {
          "internalType": "bool",
          "name": "isCompleted",
          "type": "bool"
        },
        {
          "internalType": "bool",
          "name": "isCancelled",
          "type": "bool"
        },
        {
          "internalType": "uint256",
          "name": "time",
          "type": "uint256"
        }
      ],
      "stateMutability": "view",
      "type": "function"
    },
    {
      "inputs": [],
      "name": "owner",
      "outputs": [
        {
          "internalType": "address",
          "name": "",
          "type": "address"
        }
      ],
      "stateMutability": "view",
      "type": "function"
    },
    {
      "inputs": [
        {
          "internalType": "uint256",
          "name": "_orderId",
          "type": "uint256"
        }
      ],
      "name": "payToCourrier",
      "outputs": [],
      "stateMutability": "payable",
      "type": "function"
    },
    {
      "inputs": [
        {
          "internalType": "uint256",
          "name": "_orderId",
          "type": "uint256"
        }
      ],
      "name": "refund",
      "outputs": [],
      "stateMutability": "payable",
      "type": "function"
    },
    {
      "inputs": [
        {
          "internalType": "uint256",
          "name": "",
          "type": "uint256"
        }
      ],
      "name": "restaurants",
      "outputs": [
        {
          "internalType": "string",
          "name": "name",
          "type": "string"
        },
        {
          "internalType": "string",
          "name": "description",
          "type": "string"
        },
        {
          "internalType": "bool",
          "name": "isOpen",
          "type": "bool"
        },
        {
          "internalType": "bool",
          "name": "isRegister",
          "type": "bool"
        },
        {
          "internalType": "uint256",
          "name": "successWork",
          "type": "uint256"
        },
        {
          "internalType": "address",
          "name": "restaurantOwner",
          "type": "address"
        }
      ],
      "stateMutability": "view",
      "type": "function"
    },
    {
      "inputs": [
        {
          "internalType": "uint256",
          "name": "_orderId",
          "type": "uint256"
        },
        {
          "internalType": "uint256",
          "name": "_courrierFee",
          "type": "uint256"
        }
      ],
      "name": "updateOrderForCourrier",
      "outputs": [],
      "stateMutability": "nonpayable",
      "type": "function"
    }
  ],
  "bytecode": "0x60806040526040518060400160405280600981526020017f426c6f636b4361727400000000000000000000000000000000000000000000008152506001908051906020019062000051929190620000b5565b506000600255600060035560006004553480156200006e57600080fd5b50336000806101000a81548173ffffffffffffffffffffffffffffffffffffffff021916908373ffffffffffffffffffffffffffffffffffffffff160217905550620001c9565b828054620000c39062000194565b90600052602060002090601f016020900481019282620000e7576000855562000133565b82601f106200010257805160ff191683800117855562000133565b8280016001018555821562000133579182015b828111156200013257825182559160200191906001019062000115565b5b50905062000142919062000146565b5090565b5b808211156200016157600081600090555060010162000147565b5090565b7f4e487b7100000000000000000000000000000000000000000000000000000000600052602260045260246000fd5b60006002820490506001821680620001ad57607f821691505b602082108103620001c357620001c262000165565b5b50919050565b612eff80620001d96000396000f3fe60806040526004361061011f5760003560e01c806362e02d2a116100a0578063ae54bcc111610064578063ae54bcc1146103ce578063b57d1879146103f7578063b6adaaff14610438578063c43fe7c414610461578063db0e1e721461048a5761011f565b806362e02d2a146102c557806375d0c0dc146102ee5780638da5cb5b14610319578063a85c38ef14610344578063ad5461d81461038c5761011f565b80634806e9af116100e75780634806e9af1461020557806350ae67621461022e578063514fcac7146102575780635f2443f3146102805780636061f754146102a95761011f565b80630a3801051461012457806311ed9a2f146101645780631d7f49321461018d578063278ecde1146101a9578063336989ae146101c5575b600080fd5b34801561013057600080fd5b5061014b600480360381019061014691906123f4565b6104b3565b60405161015b9493929190612464565b60405180910390f35b34801561017057600080fd5b5061018b6004803603810190610186919061261b565b610510565b005b6101a760048036038101906101a291906126ba565b6106d8565b005b6101c360048036038101906101be91906126ba565b61084c565b005b3480156101d157600080fd5b506101ec60048036038101906101e791906123f4565b610a97565b6040516101fc949392919061276f565b60405180910390f35b34801561021157600080fd5b5061022c600480360381019061022791906127c2565b610c04565b005b34801561023a57600080fd5b506102556004803603810190610250919061283a565b610d69565b005b34801561026357600080fd5b5061027e600480360381019061027991906126ba565b610e89565b005b34801561028c57600080fd5b506102a760048036038101906102a2919061287a565b611046565b005b6102c360048036038101906102be91906128c3565b61117d565b005b3480156102d157600080fd5b506102ec60048036038101906102e791906126ba565b6115f3565b005b3480156102fa57600080fd5b506103036117a0565b6040516103109190612932565b60405180910390f35b34801561032557600080fd5b5061032e61182e565b60405161033b9190612954565b60405180910390f35b34801561035057600080fd5b5061036b600480360381019061036691906126ba565b611852565b6040516103839c9b9a9998979695949392919061296f565b60405180910390f35b34801561039857600080fd5b506103b360048036038101906103ae91906126ba565b6119b4565b6040516103c596959493929190612a30565b60405180910390f35b3480156103da57600080fd5b506103f560048036038101906103f0919061283a565b611b3a565b005b34801561040357600080fd5b5061041e6004803603810190610419919061283a565b611c98565b60405161042f959493929190612a9f565b60405180910390f35b34801561044457600080fd5b5061045f600480360381019061045a91906126ba565b611df8565b005b34801561046d57600080fd5b50610488600480360381019061048391906127c2565b611f8b565b005b34801561049657600080fd5b506104b160048036038101906104ac91906126ba565b61215c565b005b60096020528060005260406000206000915090508060000160009054906101000a900473ffffffffffffffffffffffffffffffffffffffff16908060010154908060020160009054906101000a900460ff16908060030154905084565b6005600085815260200190815260200160002060040160009054906101000a900473ffffffffffffffffffffffffffffffffffffffff1673ffffffffffffffffffffffffffffffffffffffff163373ffffffffffffffffffffffffffffffffffffffff161461057e57600080fd5b82600660008681526020019081526020016000206000600354815260200190815260200160002060010190805190602001906105bb92919061229f565b5081600660008681526020019081526020016000206000600354815260200190815260200160002060020190805190602001906105f992919061229f565b50806006600086815260200190815260200160002060006003548152602001908152602001600020600301819055506001600660008681526020019081526020016000206000600354815260200190815260200160002060040160006101000a81548160ff0219169083151502179055506003600081548092919061067d90612b2f565b91905055503373ffffffffffffffffffffffffffffffffffffffff167f8639c6ef67dc4834a3c80e375f4d35dbfdd63a779406b47303979597ede8dbaf6003546040516106ca9190612b77565b60405180910390a250505050565b6007600082815260200190815260200160002060050160009054906101000a900473ffffffffffffffffffffffffffffffffffffffff1673ffffffffffffffffffffffffffffffffffffffff163373ffffffffffffffffffffffffffffffffffffffff161461077c576040517f08c379a000000000000000000000000000000000000000000000000000000000815260040161077390612bde565b60405180910390fd5b600760008281526020019081526020016000206007015434101561079f57600080fd5b6007600082815260200190815260200160002060000160009054906101000a900473ffffffffffffffffffffffffffffffffffffffff1673ffffffffffffffffffffffffffffffffffffffff166108fc349081150290604051600060405180830381858888f1935050505015801561081b573d6000803e3d6000fd5b50807f0a2a194e8086d5501a3b45691943f730713a31c0c2442461c3c70c9080ba083960405160405180910390a250565b3460076000838152602001908152602001600020600101541461086e57600080fd5b600015156007600083815260200190815260200160002060090160019054906101000a900460ff161515146108d8576040517f08c379a00000000000000000000000000000000000000000000000000000000081526004016108cf90612c4a565b60405180910390fd5b3373ffffffffffffffffffffffffffffffffffffffff166007600083815260200190815260200160002060050160009054906101000a900473ffffffffffffffffffffffffffffffffffffffff1673ffffffffffffffffffffffffffffffffffffffff161461097c576040517f08c379a000000000000000000000000000000000000000000000000000000000815260040161097390612cb6565b60405180910390fd5b6007600082815260200190815260200160002060060160009054906101000a900473ffffffffffffffffffffffffffffffffffffffff1673ffffffffffffffffffffffffffffffffffffffff166108fc349081150290604051600060405180830381858888f193505050501580156109f8573d6000803e3d6000fd5b506007600082815260200190815260200160002060060160009054906101000a900473ffffffffffffffffffffffffffffffffffffffff1673ffffffffffffffffffffffffffffffffffffffff163373ffffffffffffffffffffffffffffffffffffffff167ff40cc8c1a1d17359049ba500cfc894596a692cffc9d03943cd92ec2e159cf6ae83604051610a8c9190612b77565b60405180910390a350565b60086020528060005260406000206000915090508060000160009054906101000a900473ffffffffffffffffffffffffffffffffffffffff1690806001018054610ae090612d05565b80601f0160208091040260200160405190810160405280929190818152602001828054610b0c90612d05565b8015610b595780601f10610b2e57610100808354040283529160200191610b59565b820191906000526020600020905b815481529060010190602001808311610b3c57829003601f168201915b505050505090806002018054610b6e90612d05565b80601f0160208091040260200160405190810160405280929190818152602001828054610b9a90612d05565b8015610be75780601f10610bbc57610100808354040283529160200191610be7565b820191906000526020600020905b815481529060010190602001808311610bca57829003601f168201915b5050505050908060030160009054906101000a900460ff16905084565b816005600060025481526020019081526020016000206000019080519060200190610c3092919061229f565b50806005600060025481526020019081526020016000206001019080519060200190610c5d92919061229f565b50600160056000600254815260200190815260200160002060020160006101000a81548160ff021916908315150217905550600160056000600254815260200190815260200160002060020160016101000a81548160ff0219169083151502179055503360056000600254815260200190815260200160002060040160006101000a81548173ffffffffffffffffffffffffffffffffffffffff021916908373ffffffffffffffffffffffffffffffffffffffff1602179055503373ffffffffffffffffffffffffffffffffffffffff167f3b284ced3f302cf38d7fd98b03fe3d14cb5c3e0ddd20255b4e348eac7dad84f683604051610d5d9190612932565b60405180910390a25050565b6005600083815260200190815260200160002060040160009054906101000a900473ffffffffffffffffffffffffffffffffffffffff1673ffffffffffffffffffffffffffffffffffffffff163373ffffffffffffffffffffffffffffffffffffffff1614610dd757600080fd5b600660006002548152602001908152602001600020600082815260200190815260200160002060040160009054906101000a900460ff161560066000848152602001908152602001600020600083815260200190815260200160002060040160006101000a81548160ff021916908315150217905550817f400181a46c87092057240ecb86bf0d8824d9356749e0fee623e24c0187d4892882604051610e7d9190612b77565b60405180910390a25050565b3373ffffffffffffffffffffffffffffffffffffffff166007600083815260200190815260200160002060060160009054906101000a900473ffffffffffffffffffffffffffffffffffffffff1673ffffffffffffffffffffffffffffffffffffffff1614610f2d576040517f08c379a0000000000000000000000000000000000000000000000000000000008152600401610f2490612cb6565b60405180910390fd5b600015156007600083815260200190815260200160002060090160009054906101000a900460ff16151514610f97576040517f08c379a0000000000000000000000000000000000000000000000000000000008152600401610f8e90612d82565b60405180910390fd5b60016007600083815260200190815260200160002060090160016101000a81548160ff02191690831515021790555060016007600083815260200190815260200160002060090160006101000a81548160ff0219169083151502179055503373ffffffffffffffffffffffffffffffffffffffff167fc0e68d6b69f741c21e955cad2ae4d505b6f6735c7e7b278251b3f6283a5f07eb8260405161103b9190612b77565b60405180910390a250565b600860003373ffffffffffffffffffffffffffffffffffffffff1673ffffffffffffffffffffffffffffffffffffffff16815260200190815260200160002060030160009054906101000a900460ff166110d5576040517f08c379a00000000000000000000000000000000000000000000000000000000081526004016110cc90612dee565b60405180910390fd5b80600860003373ffffffffffffffffffffffffffffffffffffffff1673ffffffffffffffffffffffffffffffffffffffff168152602001908152602001600020600101908051906020019061112b92919061229f565b503373ffffffffffffffffffffffffffffffffffffffff167fd9374adca2d550eec8b24ad0bbb7017b8e0eb55388d01cba6d6958bf937e5db0826040516111729190612932565b60405180910390a250565b600860003373ffffffffffffffffffffffffffffffffffffffff1673ffffffffffffffffffffffffffffffffffffffff16815260200190815260200160002060030160009054906101000a900460ff1661120c576040517f08c379a000000000000000000000000000000000000000000000000000000000815260040161120390612dee565b60405180910390fd5b600660008481526020019081526020016000206000838152602001908152602001600020600301543414611275576040517f08c379a000000000000000000000000000000000000000000000000000000000815260040161126c90612e80565b60405180910390fd5b60066000848152602001908152602001600020600083815260200190815260200160002060040160009054906101000a900460ff16156112b457600080fd5b6005600084815260200190815260200160002060040160009054906101000a900473ffffffffffffffffffffffffffffffffffffffff1673ffffffffffffffffffffffffffffffffffffffff166108fc349081150290604051600060405180830381858888f19350505050158015611330573d6000803e3d6000fd5b5060045460076000600454815260200190815260200160002060020181905550816007600060045481526020019081526020016000206003018190555080600760006004548152602001908152602001600020600801908051906020019061139992919061229f565b503360076000600454815260200190815260200160002060060160006101000a81548173ffffffffffffffffffffffffffffffffffffffff021916908373ffffffffffffffffffffffffffffffffffffffff1602179055506005600084815260200190815260200160002060040160009054906101000a900473ffffffffffffffffffffffffffffffffffffffff1660076000600454815260200190815260200160002060050160006101000a81548173ffffffffffffffffffffffffffffffffffffffff021916908373ffffffffffffffffffffffffffffffffffffffff160217905550600060076000600454815260200190815260200160002060090160006101000a81548160ff021916908315150217905550600060076000600454815260200190815260200160002060090160016101000a81548160ff02191690831515021790555042600760006004548152602001908152602001600020600a018190555034600760006004548152602001908152602001600020600a018190555082600760006004548152602001908152602001600020600401819055506004600081548092919061154a90612b2f565b91905055506005600084815260200190815260200160002060040160009054906101000a900473ffffffffffffffffffffffffffffffffffffffff1673ffffffffffffffffffffffffffffffffffffffff163373ffffffffffffffffffffffffffffffffffffffff167fe9309aa9eb653bec66fbe06be2e8b0982907856241601228d8b2241502a4d052600454856040516115e6929190612ea0565b60405180910390a3505050565b6007600082815260200190815260200160002060060160009054906101000a900473ffffffffffffffffffffffffffffffffffffffff1673ffffffffffffffffffffffffffffffffffffffff163373ffffffffffffffffffffffffffffffffffffffff161461166157600080fd5b600015156007600083815260200190815260200160002060090160009054906101000a900460ff161515146116cb576040517f08c379a00000000000000000000000000000000000000000000000000000000081526004016116c290612d82565b60405180910390fd5b60016007600083815260200190815260200160002060090160016101000a81548160ff021916908315150217905550336007600083815260200190815260200160002060000160006101000a81548173ffffffffffffffffffffffffffffffffffffffff021916908373ffffffffffffffffffffffffffffffffffffffff1602179055503373ffffffffffffffffffffffffffffffffffffffff167f27c804121fbf5b023acb5f8508ab9370c5816a0859205cc1b8ca716c86a6896f826040516117959190612b77565b60405180910390a250565b600180546117ad90612d05565b80601f01602080910402602001604051908101604052809291908181526020018280546117d990612d05565b80156118265780601f106117fb57610100808354040283529160200191611826565b820191906000526020600020905b81548152906001019060200180831161180957829003601f168201915b505050505081565b60008054906101000a900473ffffffffffffffffffffffffffffffffffffffff1681565b60076020528060005260406000206000915090508060000160009054906101000a900473ffffffffffffffffffffffffffffffffffffffff16908060010154908060020154908060030154908060040154908060050160009054906101000a900473ffffffffffffffffffffffffffffffffffffffff16908060060160009054906101000a900473ffffffffffffffffffffffffffffffffffffffff169080600701549080600801805461190590612d05565b80601f016020809104026020016040519081016040528092919081815260200182805461193190612d05565b801561197e5780601f106119535761010080835404028352916020019161197e565b820191906000526020600020905b81548152906001019060200180831161196157829003601f168201915b5050505050908060090160009054906101000a900460ff16908060090160019054906101000a900460ff169080600a015490508c565b60056020528060005260406000206000915090508060000180546119d790612d05565b80601f0160208091040260200160405190810160405280929190818152602001828054611a0390612d05565b8015611a505780601f10611a2557610100808354040283529160200191611a50565b820191906000526020600020905b815481529060010190602001808311611a3357829003601f168201915b505050505090806001018054611a6590612d05565b80601f0160208091040260200160405190810160405280929190818152602001828054611a9190612d05565b8015611ade5780601f10611ab357610100808354040283529160200191611ade565b820191906000526020600020905b815481529060010190602001808311611ac157829003601f168201915b5050505050908060020160009054906101000a900460ff16908060020160019054906101000a900460ff16908060030154908060040160009054906101000a900473ffffffffffffffffffffffffffffffffffffffff16905086565b6007600083815260200190815260200160002060050160009054906101000a900473ffffffffffffffffffffffffffffffffffffffff1673ffffffffffffffffffffffffffffffffffffffff163373ffffffffffffffffffffffffffffffffffffffff1614611ba857600080fd5b600015156007600084815260200190815260200160002060090160009054906101000a900460ff16151514611c12576040517f08c379a0000000000000000000000000000000000000000000000000000000008152600401611c0990612d82565b60405180910390fd5b60016007600084815260200190815260200160002060090160016101000a81548160ff021916908315150217905550806007600084815260200190815260200160002060070181905550817f492beb53f6179d64fd27946bb9c63851ef5c63c3d1f13c14ac3d4c98fbe1c05d82604051611c8c9190612b77565b60405180910390a25050565b600660205281600052604060002060205280600052604060002060009150915050806000015490806001018054611cce90612d05565b80601f0160208091040260200160405190810160405280929190818152602001828054611cfa90612d05565b8015611d475780601f10611d1c57610100808354040283529160200191611d47565b820191906000526020600020905b815481529060010190602001808311611d2a57829003601f168201915b505050505090806002018054611d5c90612d05565b80601f0160208091040260200160405190810160405280929190818152602001828054611d8890612d05565b8015611dd55780601f10611daa57610100808354040283529160200191611dd5565b820191906000526020600020905b815481529060010190602001808311611db857829003601f168201915b5050505050908060030154908060040160009054906101000a900460ff16905085565b6007600082815260200190815260200160002060060160009054906101000a900473ffffffffffffffffffffffffffffffffffffffff1673ffffffffffffffffffffffffffffffffffffffff163373ffffffffffffffffffffffffffffffffffffffff1614611e6657600080fd5b6007600082815260200190815260200160002060090160009054906101000a900460ff16611ec9576040517f08c379a0000000000000000000000000000000000000000000000000000000008152600401611ec090612d82565b60405180910390fd5b60016007600083815260200190815260200160002060090160016101000a81548160ff02191690831515021790555060056000600760008481526020019081526020016000206004015481526020019081526020016000206003016000815480929190611f3590612b2f565b91905055503373ffffffffffffffffffffffffffffffffffffffff167feee53a62339b3b3432b27f55ba4665e4256566e4aadf3f0f094a6bfe9e1f836382604051611f809190612b77565b60405180910390a250565b33600860003373ffffffffffffffffffffffffffffffffffffffff1673ffffffffffffffffffffffffffffffffffffffff16815260200190815260200160002060000160006101000a81548173ffffffffffffffffffffffffffffffffffffffff021916908373ffffffffffffffffffffffffffffffffffffffff16021790555081600860003373ffffffffffffffffffffffffffffffffffffffff1673ffffffffffffffffffffffffffffffffffffffff168152602001908152602001600020600101908051906020019061206292919061229f565b5080600860003373ffffffffffffffffffffffffffffffffffffffff1673ffffffffffffffffffffffffffffffffffffffff16815260200190815260200160002060020190805190602001906120b992919061229f565b506001600860003373ffffffffffffffffffffffffffffffffffffffff1673ffffffffffffffffffffffffffffffffffffffff16815260200190815260200160002060030160006101000a81548160ff0219169083151502179055503373ffffffffffffffffffffffffffffffffffffffff167fd837e400eb850e4aedd184df21d3c65015f3fd2d181af774c575202459196b9d60405160405180910390a25050565b6005600082815260200190815260200160002060040160009054906101000a900473ffffffffffffffffffffffffffffffffffffffff1673ffffffffffffffffffffffffffffffffffffffff163373ffffffffffffffffffffffffffffffffffffffff16146121ca57600080fd5b600560006002548152602001908152602001600020600080820160006121f09190612325565b6001820160006122009190612325565b6002820160006101000a81549060ff02191690556002820160016101000a81549060ff021916905560038201600090556004820160006101000a81549073ffffffffffffffffffffffffffffffffffffffff021916905550503373ffffffffffffffffffffffffffffffffffffffff167f7b3fe5ea1d57d255b243c252a8045ec5f67db721e340a93978775d9086991d4a60405160405180910390a250565b8280546122ab90612d05565b90600052602060002090601f0160209004810192826122cd5760008555612314565b82601f106122e657805160ff1916838001178555612314565b82800160010185558215612314579182015b828111156123135782518255916020019190600101906122f8565b5b5090506123219190612365565b5090565b50805461233190612d05565b6000825580601f106123435750612362565b601f0160209004906000526020600020908101906123619190612365565b5b50565b5b8082111561237e576000816000905550600101612366565b5090565b6000604051905090565b600080fd5b600080fd5b600073ffffffffffffffffffffffffffffffffffffffff82169050919050565b60006123c182612396565b9050919050565b6123d1816123b6565b81146123dc57600080fd5b50565b6000813590506123ee816123c8565b92915050565b60006020828403121561240a5761240961238c565b5b6000612418848285016123df565b91505092915050565b61242a816123b6565b82525050565b6000819050919050565b61244381612430565b82525050565b60008115159050919050565b61245e81612449565b82525050565b60006080820190506124796000830187612421565b612486602083018661243a565b6124936040830185612455565b6124a0606083018461243a565b95945050505050565b6124b281612430565b81146124bd57600080fd5b50565b6000813590506124cf816124a9565b92915050565b600080fd5b600080fd5b6000601f19601f8301169050919050565b7f4e487b7100000000000000000000000000000000000000000000000000000000600052604160045260246000fd5b612528826124df565b810181811067ffffffffffffffff82111715612547576125466124f0565b5b80604052505050565b600061255a612382565b9050612566828261251f565b919050565b600067ffffffffffffffff821115612586576125856124f0565b5b61258f826124df565b9050602081019050919050565b82818337600083830152505050565b60006125be6125b98461256b565b612550565b9050828152602081018484840111156125da576125d96124da565b5b6125e584828561259c565b509392505050565b600082601f830112612602576126016124d5565b5b81356126128482602086016125ab565b91505092915050565b600080600080608085870312156126355761263461238c565b5b6000612643878288016124c0565b945050602085013567ffffffffffffffff81111561266457612663612391565b5b612670878288016125ed565b935050604085013567ffffffffffffffff81111561269157612690612391565b5b61269d878288016125ed565b92505060606126ae878288016124c0565b91505092959194509250565b6000602082840312156126d0576126cf61238c565b5b60006126de848285016124c0565b91505092915050565b600081519050919050565b600082825260208201905092915050565b60005b83811015612721578082015181840152602081019050612706565b83811115612730576000848401525b50505050565b6000612741826126e7565b61274b81856126f2565b935061275b818560208601612703565b612764816124df565b840191505092915050565b60006080820190506127846000830187612421565b81810360208301526127968186612736565b905081810360408301526127aa8185612736565b90506127b96060830184612455565b95945050505050565b600080604083850312156127d9576127d861238c565b5b600083013567ffffffffffffffff8111156127f7576127f6612391565b5b612803858286016125ed565b925050602083013567ffffffffffffffff81111561282457612823612391565b5b612830858286016125ed565b9150509250929050565b600080604083850312156128515761285061238c565b5b600061285f858286016124c0565b9250506020612870858286016124c0565b9150509250929050565b6000602082840312156128905761288f61238c565b5b600082013567ffffffffffffffff8111156128ae576128ad612391565b5b6128ba848285016125ed565b91505092915050565b6000806000606084860312156128dc576128db61238c565b5b60006128ea868287016124c0565b93505060206128fb868287016124c0565b925050604084013567ffffffffffffffff81111561291c5761291b612391565b5b612928868287016125ed565b9150509250925092565b6000602082019050818103600083015261294c8184612736565b905092915050565b60006020820190506129696000830184612421565b92915050565b600061018082019050612985600083018f612421565b612992602083018e61243a565b61299f604083018d61243a565b6129ac606083018c61243a565b6129b9608083018b61243a565b6129c660a083018a612421565b6129d360c0830189612421565b6129e060e083018861243a565b8181036101008301526129f38187612736565b9050612a03610120830186612455565b612a11610140830185612455565b612a1f61016083018461243a565b9d9c50505050505050505050505050565b600060c0820190508181036000830152612a4a8189612736565b90508181036020830152612a5e8188612736565b9050612a6d6040830187612455565b612a7a6060830186612455565b612a87608083018561243a565b612a9460a0830184612421565b979650505050505050565b600060a082019050612ab4600083018861243a565b8181036020830152612ac68187612736565b90508181036040830152612ada8186612736565b9050612ae9606083018561243a565b612af66080830184612455565b9695505050505050565b7f4e487b7100000000000000000000000000000000000000000000000000000000600052601160045260246000fd5b6000612b3a82612430565b91507fffffffffffffffffffffffffffffffffffffffffffffffffffffffffffffffff8203612b6c57612b6b612b00565b5b600182019050919050565b6000602082019050612b8c600083018461243a565b92915050565b7f796f7520617265206e6f74206f776e6572000000000000000000000000000000600082015250565b6000612bc86011836126f2565b9150612bd382612b92565b602082019050919050565b60006020820190508181036000830152612bf781612bbb565b9050919050565b7f6f72646572206973206e6f742063616e63656c6c656400000000000000000000600082015250565b6000612c346016836126f2565b9150612c3f82612bfe565b602082019050919050565b60006020820190508181036000830152612c6381612c27565b9050919050565b7f6f72646572206973206e6f7420796f7572730000000000000000000000000000600082015250565b6000612ca06012836126f2565b9150612cab82612c6a565b602082019050919050565b60006020820190508181036000830152612ccf81612c93565b9050919050565b7f4e487b7100000000000000000000000000000000000000000000000000000000600052602260045260246000fd5b60006002820490506001821680612d1d57607f821691505b602082108103612d3057612d2f612cd6565b5b50919050565b7f6f7264657220697320636f6d706c657465640000000000000000000000000000600082015250565b6000612d6c6012836126f2565b9150612d7782612d36565b602082019050919050565b60006020820190508181036000830152612d9b81612d5f565b9050919050565b7f796f7520617265206e6f7420637573746f6d6572000000000000000000000000600082015250565b6000612dd86014836126f2565b9150612de382612da2565b602082019050919050565b60006020820190508181036000830152612e0781612dcb565b9050919050565b7f76616c7565206d75737420626520657175616c20746f207072696365206f662060008201527f666f6f6400000000000000000000000000000000000000000000000000000000602082015250565b6000612e6a6024836126f2565b9150612e7582612e0e565b604082019050919050565b60006020820190508181036000830152612e9981612e5d565b9050919050565b6000604082019050612eb5600083018561243a565b612ec2602083018461243a565b939250505056fea26469706673582212206e3815e3dff0bfc039a26b38606fcd9b03c22bd9f0802855c0a7e79dc3c16e7f64736f6c634300080e0033",
  "linkReferences": {},
  "deployedLinkReferences": {}
}