{
  "_format": "hh-sol-artifact-1",
  "contractName": "BlockCart",
  "sourceName": "contracts/BlockCart.sol",
  "abi": [
    {
      "inputs": [],
      "stateMutability": "nonpayable",
      "type": "constructor"
    },
    {
      "anonymous": false,
      "inputs": [
        {
          "indexed": true,
          "internalType": "address",
          "name": "owner",
          "type": "address"
        },
        {
          "indexed": true,
          "internalType": "address",
          "name": "spender",
          "type": "address"
        },
        {
          "indexed": false,
          "internalType": "uint256",
          "name": "value",
          "type": "uint256"
        }
      ],
      "name": "Approval",
      "type": "event"
    },
    {
      "anonymous": false,
      "inputs": [
        {
          "indexed": true,
          "internalType": "address",
          "name": "from",
          "type": "address"
        },
        {
          "indexed": true,
          "internalType": "address",
          "name": "to",
          "type": "address"
        },
        {
          "indexed": false,
          "internalType": "uint256",
          "name": "value",
          "type": "uint256"
        }
      ],
      "name": "Transfer",
      "type": "event"
    },
    {
      "inputs": [
        {
          "internalType": "uint256",
          "name": "_orderId",
          "type": "uint256"
        }
      ],
      "name": "acceptOrder",
      "outputs": [],
      "stateMutability": "nonpayable",
      "type": "function"
    },
    {
      "inputs": [
        {
          "internalType": "uint256",
          "name": "_orderId",
          "type": "uint256"
        },
        {
          "internalType": "string",
          "name": "_title",
          "type": "string"
        },
        {
          "internalType": "string",
          "name": "_detail",
          "type": "string"
        }
      ],
      "name": "addComment",
      "outputs": [],
      "stateMutability": "nonpayable",
      "type": "function"
    },
    {
      "inputs": [
        {
          "internalType": "uint256",
          "name": "_orderId",
          "type": "uint256"
        },
        {
          "internalType": "uint256",
          "name": "_fee",
          "type": "uint256"
        }
      ],
      "name": "addDeliveryFee",
      "outputs": [],
      "stateMutability": "nonpayable",
      "type": "function"
    },
    {
      "inputs": [
        {
          "internalType": "string",
          "name": "_imageLink",
          "type": "string"
        },
        {
          "internalType": "string",
          "name": "_name",
          "type": "string"
        },
        {
          "internalType": "string",
          "name": "_desc",
          "type": "string"
        },
        {
          "internalType": "uint256",
          "name": "_price",
          "type": "uint256"
        },
        {
          "internalType": "string",
          "name": "_category",
          "type": "string"
        }
      ],
      "name": "addFood",
      "outputs": [],
      "stateMutability": "nonpayable",
      "type": "function"
    },
    {
      "inputs": [
        {
          "internalType": "address",
          "name": "owner",
          "type": "address"
        },
        {
          "internalType": "address",
          "name": "spender",
          "type": "address"
        }
      ],
      "name": "allowance",
      "outputs": [
        {
          "internalType": "uint256",
          "name": "",
          "type": "uint256"
        }
      ],
      "stateMutability": "view",
      "type": "function"
    },
    {
      "inputs": [
        {
          "internalType": "address",
          "name": "spender",
          "type": "address"
        },
        {
          "internalType": "uint256",
          "name": "amount",
          "type": "uint256"
        }
      ],
      "name": "approve",
      "outputs": [
        {
          "internalType": "bool",
          "name": "",
          "type": "bool"
        }
      ],
      "stateMutability": "nonpayable",
      "type": "function"
    },
    {
      "inputs": [
        {
          "internalType": "address",
          "name": "account",
          "type": "address"
        }
      ],
      "name": "balanceOf",
      "outputs": [
        {
          "internalType": "uint256",
          "name": "",
          "type": "uint256"
        }
      ],
      "stateMutability": "view",
      "type": "function"
    },
    {
      "inputs": [
        {
          "internalType": "uint256",
          "name": "_orderId",
          "type": "uint256"
        }
      ],
      "name": "cancelOrder",
      "outputs": [],
      "stateMutability": "nonpayable",
      "type": "function"
    },
    {
      "inputs": [
        {
          "internalType": "uint256",
          "name": "_foodId",
          "type": "uint256"
        }
      ],
      "name": "changeActiveFood",
      "outputs": [],
      "stateMutability": "nonpayable",
      "type": "function"
    },
    {
      "inputs": [],
      "name": "changeIsOpen",
      "outputs": [],
      "stateMutability": "nonpayable",
      "type": "function"
    },
    {
      "inputs": [],
      "name": "contractName",
      "outputs": [
        {
          "internalType": "string",
          "name": "",
          "type": "string"
        }
      ],
      "stateMutability": "view",
      "type": "function"
    },
    {
      "inputs": [
        {
          "internalType": "address",
          "name": "",
          "type": "address"
        }
      ],
      "name": "courriers",
      "outputs": [
        {
          "internalType": "string",
          "name": "name",
          "type": "string"
        },
        {
          "internalType": "address",
          "name": "courAddress",
          "type": "address"
        },
        {
          "internalType": "uint256",
          "name": "succedWork",
          "type": "uint256"
        }
      ],
      "stateMutability": "view",
      "type": "function"
    },
    {
      "inputs": [
        {
          "internalType": "string",
          "name": "_name",
          "type": "string"
        }
      ],
      "name": "createCourrier",
      "outputs": [],
      "stateMutability": "nonpayable",
      "type": "function"
    },
    {
      "inputs": [
        {
          "internalType": "string",
          "name": "_name",
          "type": "string"
        },
        {
          "internalType": "string",
          "name": "_mail",
          "type": "string"
        },
        {
          "internalType": "string",
          "name": "_phoneNumber",
          "type": "string"
        }
      ],
      "name": "createCustomer",
      "outputs": [],
      "stateMutability": "nonpayable",
      "type": "function"
    },
    {
      "inputs": [
        {
          "internalType": "uint256[]",
          "name": "_foodIds",
          "type": "uint256[]"
        },
        {
          "internalType": "string",
          "name": "_orderAddress",
          "type": "string"
        },
        {
          "internalType": "address",
          "name": "_restaurantOwner",
          "type": "address"
        },
        {
          "internalType": "string",
          "name": "_orderDetail",
          "type": "string"
        }
      ],
      "name": "createOrder",
      "outputs": [],
      "stateMutability": "nonpayable",
      "type": "function"
    },
    {
      "inputs": [
        {
          "internalType": "string",
          "name": "_name",
          "type": "string"
        },
        {
          "internalType": "string",
          "name": "_description",
          "type": "string"
        }
      ],
      "name": "createRestaurant",
      "outputs": [],
      "stateMutability": "nonpayable",
      "type": "function"
    },
    {
      "inputs": [
        {
          "internalType": "address",
          "name": "",
          "type": "address"
        }
      ],
      "name": "customers",
      "outputs": [
        {
          "internalType": "address",
          "name": "customerAddress",
          "type": "address"
        },
        {
          "internalType": "string",
          "name": "name",
          "type": "string"
        },
        {
          "internalType": "string",
          "name": "mail",
          "type": "string"
        },
        {
          "internalType": "string",
          "name": "phoneNumber",
          "type": "string"
        }
      ],
      "stateMutability": "view",
      "type": "function"
    },
    {
      "inputs": [],
      "name": "decimals",
      "outputs": [
        {
          "internalType": "uint8",
          "name": "",
          "type": "uint8"
        }
      ],
      "stateMutability": "view",
      "type": "function"
    },
    {
      "inputs": [
        {
          "internalType": "address",
          "name": "spender",
          "type": "address"
        },
        {
          "internalType": "uint256",
          "name": "subtractedValue",
          "type": "uint256"
        }
      ],
      "name": "decreaseAllowance",
      "outputs": [
        {
          "internalType": "bool",
          "name": "",
          "type": "bool"
        }
      ],
      "stateMutability": "nonpayable",
      "type": "function"
    },
    {
      "inputs": [],
      "name": "deleteCourrier",
      "outputs": [],
      "stateMutability": "nonpayable",
      "type": "function"
    },
    {
      "inputs": [],
      "name": "deleteCustomer",
      "outputs": [],
      "stateMutability": "nonpayable",
      "type": "function"
    },
    {
      "inputs": [],
      "name": "destroyRestaurant",
      "outputs": [],
      "stateMutability": "nonpayable",
      "type": "function"
    },
    {
      "inputs": [],
      "name": "foodCount",
      "outputs": [
        {
          "internalType": "uint256",
          "name": "",
          "type": "uint256"
        }
      ],
      "stateMutability": "view",
      "type": "function"
    },
    {
      "inputs": [
        {
          "internalType": "uint256",
          "name": "",
          "type": "uint256"
        }
      ],
      "name": "foods",
      "outputs": [
        {
          "internalType": "string",
          "name": "imageLink",
          "type": "string"
        },
        {
          "internalType": "string",
          "name": "name",
          "type": "string"
        },
        {
          "internalType": "string",
          "name": "desc",
          "type": "string"
        },
        {
          "internalType": "string",
          "name": "category",
          "type": "string"
        },
        {
          "internalType": "uint256",
          "name": "price",
          "type": "uint256"
        },
        {
          "internalType": "bool",
          "name": "isActive",
          "type": "bool"
        },
        {
          "internalType": "address",
          "name": "resOwner",
          "type": "address"
        }
      ],
      "stateMutability": "view",
      "type": "function"
    },
    {
      "inputs": [],
      "name": "getFoodCount",
      "outputs": [
        {
          "internalType": "uint256",
          "name": "",
          "type": "uint256"
        }
      ],
      "stateMutability": "view",
      "type": "function"
    },
    {
      "inputs": [],
      "name": "getOrderCount",
      "outputs": [
        {
          "internalType": "uint256",
          "name": "",
          "type": "uint256"
        }
      ],
      "stateMutability": "view",
      "type": "function"
    },
    {
      "inputs": [
        {
          "internalType": "address",
          "name": "spender",
          "type": "address"
        },
        {
          "internalType": "uint256",
          "name": "addedValue",
          "type": "uint256"
        }
      ],
      "name": "increaseAllowance",
      "outputs": [
        {
          "internalType": "bool",
          "name": "",
          "type": "bool"
        }
      ],
      "stateMutability": "nonpayable",
      "type": "function"
    },
    {
      "inputs": [],
      "name": "name",
      "outputs": [
        {
          "internalType": "string",
          "name": "",
          "type": "string"
        }
      ],
      "stateMutability": "view",
      "type": "function"
    },
    {
      "inputs": [],
      "name": "orderCount",
      "outputs": [
        {
          "internalType": "uint256",
          "name": "",
          "type": "uint256"
        }
      ],
      "stateMutability": "view",
      "type": "function"
    },
    {
      "inputs": [
        {
          "internalType": "uint256",
          "name": "",
          "type": "uint256"
        }
      ],
      "name": "orders",
      "outputs": [
        {
          "internalType": "uint256",
          "name": "totalPrice",
          "type": "uint256"
        },
        {
          "internalType": "uint256",
          "name": "courrierFee",
          "type": "uint256"
        },
        {
          "internalType": "string",
          "name": "orderAdress",
          "type": "string"
        },
        {
          "internalType": "address",
          "name": "resOwner",
          "type": "address"
        },
        {
          "internalType": "address",
          "name": "cusOwner",
          "type": "address"
        },
        {
          "internalType": "address",
          "name": "courOwner",
          "type": "address"
        },
        {
          "internalType": "string",
          "name": "orderDetail",
          "type": "string"
        },
        {
          "internalType": "enum BlockCart.OrderStatus",
          "name": "status",
          "type": "uint8"
        }
      ],
      "stateMutability": "view",
      "type": "function"
    },
    {
      "inputs": [],
      "name": "owner",
      "outputs": [
        {
          "internalType": "address",
          "name": "",
          "type": "address"
        }
      ],
      "stateMutability": "view",
      "type": "function"
    },
    {
      "inputs": [
        {
          "internalType": "uint256",
          "name": "_orderId",
          "type": "uint256"
        }
      ],
      "name": "payCourrier",
      "outputs": [],
      "stateMutability": "nonpayable",
      "type": "function"
    },
    {
      "inputs": [
        {
          "internalType": "uint256",
          "name": "_orderId",
          "type": "uint256"
        }
      ],
      "name": "payOrder",
      "outputs": [],
      "stateMutability": "nonpayable",
      "type": "function"
    },
    {
      "inputs": [
        {
          "internalType": "address",
          "name": "",
          "type": "address"
        }
      ],
      "name": "restaurants",
      "outputs": [
        {
          "internalType": "address",
          "name": "resOwner",
          "type": "address"
        },
        {
          "internalType": "string",
          "name": "name",
          "type": "string"
        },
        {
          "internalType": "string",
          "name": "desc",
          "type": "string"
        },
        {
          "internalType": "bool",
          "name": "isOpen",
          "type": "bool"
        },
        {
          "internalType": "uint256",
          "name": "successWork",
          "type": "uint256"
        }
      ],
      "stateMutability": "view",
      "type": "function"
    },
    {
      "inputs": [],
      "name": "symbol",
      "outputs": [
        {
          "internalType": "string",
          "name": "",
          "type": "string"
        }
      ],
      "stateMutability": "view",
      "type": "function"
    },
    {
      "inputs": [],
      "name": "totalSupply",
      "outputs": [
        {
          "internalType": "uint256",
          "name": "",
          "type": "uint256"
        }
      ],
      "stateMutability": "view",
      "type": "function"
    },
    {
      "inputs": [
        {
          "internalType": "address",
          "name": "to",
          "type": "address"
        },
        {
          "internalType": "uint256",
          "name": "amount",
          "type": "uint256"
        }
      ],
      "name": "transfer",
      "outputs": [
        {
          "internalType": "bool",
          "name": "",
          "type": "bool"
        }
      ],
      "stateMutability": "nonpayable",
      "type": "function"
    },
    {
      "inputs": [
        {
          "internalType": "address",
          "name": "from",
          "type": "address"
        },
        {
          "internalType": "address",
          "name": "to",
          "type": "address"
        },
        {
          "internalType": "uint256",
          "name": "amount",
          "type": "uint256"
        }
      ],
      "name": "transferFrom",
      "outputs": [
        {
          "internalType": "bool",
          "name": "",
          "type": "bool"
        }
      ],
      "stateMutability": "nonpayable",
      "type": "function"
    }
  ],
  "bytecode": "0x60806040526040518060400160405280600981526020017f426c6f636b43617274000000000000000000000000000000000000000000000081525060069080519060200190620000519291906200030f565b50600160075560016008553480156200006957600080fd5b506040518060400160405280600981526020017f426c6f636b4361727400000000000000000000000000000000000000000000008152506040518060400160405280600281526020017f42430000000000000000000000000000000000000000000000000000000000008152508160039080519060200190620000ee9291906200030f565b508060049080519060200190620001079291906200030f565b50505062000148336200011f6200018f60201b60201c565b600a6200012d919062000559565b6103e86200013c9190620005aa565b6200019860201b60201c565b33600560006101000a81548173ffffffffffffffffffffffffffffffffffffffff021916908373ffffffffffffffffffffffffffffffffffffffff1602179055506200077d565b60006012905090565b600073ffffffffffffffffffffffffffffffffffffffff168273ffffffffffffffffffffffffffffffffffffffff16036200020a576040517f08c379a000000000000000000000000000000000000000000000000000000000815260040162000201906200066c565b60405180910390fd5b6200021e600083836200030560201b60201c565b80600260008282546200023291906200068e565b92505081905550806000808473ffffffffffffffffffffffffffffffffffffffff1673ffffffffffffffffffffffffffffffffffffffff168152602001908152602001600020600082825401925050819055508173ffffffffffffffffffffffffffffffffffffffff16600073ffffffffffffffffffffffffffffffffffffffff167fddf252ad1be2c89b69c2b068fc378daa952ba7f163c4a11628f55a4df523b3ef83604051620002e59190620006fc565b60405180910390a362000301600083836200030a60201b60201c565b5050565b505050565b505050565b8280546200031d9062000748565b90600052602060002090601f0160209004810192826200034157600085556200038d565b82601f106200035c57805160ff19168380011785556200038d565b828001600101855582156200038d579182015b828111156200038c5782518255916020019190600101906200036f565b5b5090506200039c9190620003a0565b5090565b5b80821115620003bb576000816000905550600101620003a1565b5090565b7f4e487b7100000000000000000000000000000000000000000000000000000000600052601160045260246000fd5b60008160011c9050919050565b6000808291508390505b60018511156200044d57808604811115620004255762000424620003bf565b5b6001851615620004355780820291505b80810290506200044585620003ee565b945062000405565b94509492505050565b6000826200046857600190506200053b565b816200047857600090506200053b565b81600181146200049157600281146200049c57620004d2565b60019150506200053b565b60ff841115620004b157620004b0620003bf565b5b8360020a915084821115620004cb57620004ca620003bf565b5b506200053b565b5060208310610133831016604e8410600b84101617156200050c5782820a905083811115620005065762000505620003bf565b5b6200053b565b6200051b8484846001620003fb565b92509050818404811115620005355762000534620003bf565b5b81810290505b9392505050565b6000819050919050565b600060ff82169050919050565b6000620005668262000542565b915062000573836200054c565b9250620005a27fffffffffffffffffffffffffffffffffffffffffffffffffffffffffffffffff848462000456565b905092915050565b6000620005b78262000542565b9150620005c48362000542565b9250817fffffffffffffffffffffffffffffffffffffffffffffffffffffffffffffffff04831182151516156200060057620005ff620003bf565b5b828202905092915050565b600082825260208201905092915050565b7f45524332303a206d696e7420746f20746865207a65726f206164647265737300600082015250565b600062000654601f836200060b565b915062000661826200061c565b602082019050919050565b60006020820190508181036000830152620006878162000645565b9050919050565b60006200069b8262000542565b9150620006a88362000542565b9250827fffffffffffffffffffffffffffffffffffffffffffffffffffffffffffffffff03821115620006e057620006df620003bf565b5b828201905092915050565b620006f68162000542565b82525050565b6000602082019050620007136000830184620006eb565b92915050565b7f4e487b7100000000000000000000000000000000000000000000000000000000600052602260045260246000fd5b600060028204905060018216806200076157607f821691505b60208210810362000777576200077662000719565b5b50919050565b6145b7806200078d6000396000f3fe608060405234801561001057600080fd5b50600436106102325760003560e01c80634806e9af116101305780638d0a5fbb116100b8578063a457c2d71161007c578063a457c2d71461064e578063a85c38ef1461067e578063a9059cbb146106b5578063dd62ed3e146106e5578063ef18e9ed1461071557610232565b80638d0a5fbb146105ba5780638da5cb5b146105d857806395d89b41146105f657806396efde6b14610614578063a14086211461063057610232565b806366c2a710116100ff57806366c2a7101461053a5780636968411b146105445780636a1703991461056257806370a082311461056c57806375d0c0dc1461059c57610232565b80634806e9af146104ca578063514fcac7146104e657806355b059e814610502578063565351741461051e57610232565b8063236cd7dc116101be5780632cafe59f116101825780632cafe59f14610423578063313ce5671461043f578063336989ae1461045d57806339509351146104905780633e07795b146104c057610232565b8063236cd7dc1461036957806323b872dd1461039d5780632453ffa8146103cd57806325fef7f8146103eb5780632a685d3c1461040757610232565b80630dda43f2116102055780630dda43f2146102d357806314d3f10e146102ef5780631521e6161461032557806318160ddd146103415780631b5709141461035f57610232565b806302a01dc91461023757806306fdde0314610253578063095ea7b3146102715780630a380105146102a1575b600080fd5b610251600480360381019061024c9190613119565b610731565b005b61025b610969565b604051610268919061328c565b60405180910390f35b61028b6004803603810190610286919061330c565b6109fb565b6040516102989190613367565b60405180910390f35b6102bb60048036038101906102b69190613382565b610a1e565b6040516102ca939291906133cd565b60405180910390f35b6102ed60048036038101906102e8919061340b565b610af0565b005b61030960048036038101906103049190613454565b610bd5565b60405161031c9796959493929190613481565b60405180910390f35b61033f600480360381019061033a919061350c565b610e64565b005b610349611068565b6040516103569190613597565b60405180910390f35b610367611072565b005b610383600480360381019061037e9190613382565b6110f5565b6040516103949594939291906135b2565b60405180910390f35b6103b760048036038101906103b29190613613565b611268565b6040516103c49190613367565b60405180910390f35b6103d5611297565b6040516103e29190613597565b60405180910390f35b61040560048036038101906104009190613666565b61129d565b005b610421600480360381019061041c9190613454565b6113dd565b005b61043d6004803603810190610438919061376e565b61151e565b005b61044761195b565b6040516104549190613845565b60405180910390f35b61047760048036038101906104729190613382565b611964565b6040516104879493929190613860565b60405180910390f35b6104aa60048036038101906104a5919061330c565b611b4c565b6040516104b79190613367565b60405180910390f35b6104c8611b83565b005b6104e460048036038101906104df91906138ba565b611c35565b005b61050060048036038101906104fb9190613454565b611d67565b005b61051c60048036038101906105179190613932565b611eb8565b005b61053860048036038101906105339190613454565b611fd4565b005b610542612029565b005b61054c6120c4565b6040516105599190613597565b60405180910390f35b61056a6120ca565b005b61058660048036038101906105819190613382565b612171565b6040516105939190613597565b60405180910390f35b6105a46121b9565b6040516105b1919061328c565b60405180910390f35b6105c2612247565b6040516105cf9190613597565b60405180910390f35b6105e0612251565b6040516105ed91906139d9565b60405180910390f35b6105fe612277565b60405161060b919061328c565b60405180910390f35b61062e60048036038101906106299190613454565b612309565b005b6106386124ba565b6040516106459190613597565b60405180910390f35b6106686004803603810190610663919061330c565b6124c4565b6040516106759190613367565b60405180910390f35b61069860048036038101906106939190613454565b61253b565b6040516106ac989796959493929190613a6b565b60405180910390f35b6106cf60048036038101906106ca919061330c565b612700565b6040516106dc9190613367565b60405180910390f35b6106ff60048036038101906106fa9190613af7565b612723565b60405161070c9190613597565b60405180910390f35b61072f600480360381019061072a9190613454565b6127aa565b005b3373ffffffffffffffffffffffffffffffffffffffff16600960003373ffffffffffffffffffffffffffffffffffffffff1673ffffffffffffffffffffffffffffffffffffffff16815260200190815260200160002060000160009054906101000a900473ffffffffffffffffffffffffffffffffffffffff1673ffffffffffffffffffffffffffffffffffffffff1614610801576040517f08c379a00000000000000000000000000000000000000000000000000000000081526004016107f890613ba9565b60405180910390fd5b6040518060e001604052808681526020018581526020018481526020018281526020018381526020016001151581526020013373ffffffffffffffffffffffffffffffffffffffff16815250600a60006007548152602001908152602001600020600082015181600001908051906020019061087e929190612e59565b50602082015181600101908051906020019061089b929190612e59565b5060408201518160020190805190602001906108b8929190612e59565b5060608201518160030190805190602001906108d5929190612e59565b506080820151816004015560a08201518160050160006101000a81548160ff02191690831515021790555060c08201518160050160016101000a81548173ffffffffffffffffffffffffffffffffffffffff021916908373ffffffffffffffffffffffffffffffffffffffff1602179055509050506007600081548092919061095d90613bf8565b91905055505050505050565b60606003805461097890613c6f565b80601f01602080910402602001604051908101604052809291908181526020018280546109a490613c6f565b80156109f15780601f106109c6576101008083540402835291602001916109f1565b820191906000526020600020905b8154815290600101906020018083116109d457829003601f168201915b5050505050905090565b600080610a0661297c565b9050610a13818585612984565b600191505092915050565b600d602052806000526040600020600091509050806000018054610a4190613c6f565b80601f0160208091040260200160405190810160405280929190818152602001828054610a6d90613c6f565b8015610aba5780601f10610a8f57610100808354040283529160200191610aba565b820191906000526020600020905b815481529060010190602001808311610a9d57829003601f168201915b5050505050908060010160009054906101000a900473ffffffffffffffffffffffffffffffffffffffff16908060020154905083565b60405180606001604052808281526020013373ffffffffffffffffffffffffffffffffffffffff1681526020016000815250600d60003373ffffffffffffffffffffffffffffffffffffffff1673ffffffffffffffffffffffffffffffffffffffff1681526020019081526020016000206000820151816000019080519060200190610b7d929190612e59565b5060208201518160010160006101000a81548173ffffffffffffffffffffffffffffffffffffffff021916908373ffffffffffffffffffffffffffffffffffffffff1602179055506040820151816002015590505050565b600a602052806000526040600020600091509050806000018054610bf890613c6f565b80601f0160208091040260200160405190810160405280929190818152602001828054610c2490613c6f565b8015610c715780601f10610c4657610100808354040283529160200191610c71565b820191906000526020600020905b815481529060010190602001808311610c5457829003601f168201915b505050505090806001018054610c8690613c6f565b80601f0160208091040260200160405190810160405280929190818152602001828054610cb290613c6f565b8015610cff5780601f10610cd457610100808354040283529160200191610cff565b820191906000526020600020905b815481529060010190602001808311610ce257829003601f168201915b505050505090806002018054610d1490613c6f565b80601f0160208091040260200160405190810160405280929190818152602001828054610d4090613c6f565b8015610d8d5780601f10610d6257610100808354040283529160200191610d8d565b820191906000526020600020905b815481529060010190602001808311610d7057829003601f168201915b505050505090806003018054610da290613c6f565b80601f0160208091040260200160405190810160405280929190818152602001828054610dce90613c6f565b8015610e1b5780601f10610df057610100808354040283529160200191610e1b565b820191906000526020600020905b815481529060010190602001808311610dfe57829003601f168201915b5050505050908060040154908060050160009054906101000a900460ff16908060050160019054906101000a900473ffffffffffffffffffffffffffffffffffffffff16905087565b6000600b6000858152602001908152602001600020905060016002811115610e8f57610e8e6139f4565b5b8160080160009054906101000a900460ff166002811115610eb357610eb26139f4565b5b14610ef3576040517f08c379a0000000000000000000000000000000000000000000000000000000008152600401610eea90613cec565b60405180910390fd5b3373ffffffffffffffffffffffffffffffffffffffff168160050160009054906101000a900473ffffffffffffffffffffffffffffffffffffffff1673ffffffffffffffffffffffffffffffffffffffff1614610f85576040517f08c379a0000000000000000000000000000000000000000000000000000000008152600401610f7c90613d58565b60405180910390fd5b600e60008260050160009054906101000a900473ffffffffffffffffffffffffffffffffffffffff1673ffffffffffffffffffffffffffffffffffffffff1673ffffffffffffffffffffffffffffffffffffffff16815260200190815260200160002060405180604001604052808581526020018481525090806001815401808255809150506001900390600052602060002090600202016000909190919091506000820151816000019080519060200190611042929190612e59565b50602082015181600101908051906020019061105f929190612e59565b50505050505050565b6000600254905090565b600d60003373ffffffffffffffffffffffffffffffffffffffff1673ffffffffffffffffffffffffffffffffffffffff168152602001908152602001600020600080820160006110c29190612edf565b6001820160006101000a81549073ffffffffffffffffffffffffffffffffffffffff021916905560028201600090555050565b60096020528060005260406000206000915090508060000160009054906101000a900473ffffffffffffffffffffffffffffffffffffffff169080600101805461113e90613c6f565b80601f016020809104026020016040519081016040528092919081815260200182805461116a90613c6f565b80156111b75780601f1061118c576101008083540402835291602001916111b7565b820191906000526020600020905b81548152906001019060200180831161119a57829003601f168201915b5050505050908060020180546111cc90613c6f565b80601f01602080910402602001604051908101604052809291908181526020018280546111f890613c6f565b80156112455780601f1061121a57610100808354040283529160200191611245565b820191906000526020600020905b81548152906001019060200180831161122857829003601f168201915b5050505050908060030160009054906101000a900460ff16908060040154905085565b60008061127361297c565b9050611280858285612b4d565b61128b858585612bd9565b60019150509392505050565b60085481565b6000600b600084815260200190815260200160002090506002808111156112c7576112c66139f4565b5b8160080160009054906101000a900460ff1660028111156112eb576112ea6139f4565b5b1461132b576040517f08c379a000000000000000000000000000000000000000000000000000000000815260040161132290613dc4565b60405180910390fd5b3373ffffffffffffffffffffffffffffffffffffffff168160040160009054906101000a900473ffffffffffffffffffffffffffffffffffffffff1673ffffffffffffffffffffffffffffffffffffffff16146113bd576040517f08c379a00000000000000000000000000000000000000000000000000000000081526004016113b490613e56565b60405180910390fd5b818160020160008282546113d19190613e76565b92505081905550505050565b6000600b60008381526020019081526020016000209050600280811115611407576114066139f4565b5b8160080160009054906101000a900460ff16600281111561142b5761142a6139f4565b5b1461146b576040517f08c379a000000000000000000000000000000000000000000000000000000000815260040161146290613dc4565b60405180910390fd5b806001015461147933612171565b10156114ba576040517f08c379a00000000000000000000000000000000000000000000000000000000081526004016114b190613f18565b60405180910390fd5b60018160080160006101000a81548160ff021916908360028111156114e2576114e16139f4565b5b02179055506115198160040160009054906101000a900473ffffffffffffffffffffffffffffffffffffffff168260010154612700565b505050565b3373ffffffffffffffffffffffffffffffffffffffff16600c60003373ffffffffffffffffffffffffffffffffffffffff1673ffffffffffffffffffffffffffffffffffffffff16815260200190815260200160002060000160009054906101000a900473ffffffffffffffffffffffffffffffffffffffff1673ffffffffffffffffffffffffffffffffffffffff16146115ee576040517f08c379a00000000000000000000000000000000000000000000000000000000081526004016115e590613f84565b60405180910390fd5b8173ffffffffffffffffffffffffffffffffffffffff16600960008473ffffffffffffffffffffffffffffffffffffffff1673ffffffffffffffffffffffffffffffffffffffff16815260200190815260200160002060000160009054906101000a900473ffffffffffffffffffffffffffffffffffffffff1673ffffffffffffffffffffffffffffffffffffffff16146116be576040517f08c379a00000000000000000000000000000000000000000000000000000000081526004016116b590613ff0565b60405180910390fd5b6000805b855181101561171c57600a60008783815181106116e2576116e1614010565b5b6020026020010151815260200190815260200160002060040154826117079190613e76565b9150808061171490613bf8565b9150506116c2565b50604051806101200160405280868152602001828152602001600081526020018581526020018473ffffffffffffffffffffffffffffffffffffffff1681526020013373ffffffffffffffffffffffffffffffffffffffff168152602001600073ffffffffffffffffffffffffffffffffffffffff1681526020018381526020016002808111156117b0576117af6139f4565b5b815250600b6000600854815260200190815260200160002060008201518160000190805190602001906117e4929190612f1f565b5060208201518160010155604082015181600201556060820151816003019080519060200190611815929190612e59565b5060808201518160040160006101000a81548173ffffffffffffffffffffffffffffffffffffffff021916908373ffffffffffffffffffffffffffffffffffffffff16021790555060a08201518160050160006101000a81548173ffffffffffffffffffffffffffffffffffffffff021916908373ffffffffffffffffffffffffffffffffffffffff16021790555060c08201518160060160006101000a81548173ffffffffffffffffffffffffffffffffffffffff021916908373ffffffffffffffffffffffffffffffffffffffff16021790555060e0820151816007019080519060200190611907929190612e59565b506101008201518160080160006101000a81548160ff02191690836002811115611934576119336139f4565b5b02179055509050506008600081548092919061194f90613bf8565b91905055505050505050565b60006012905090565b600c6020528060005260406000206000915090508060000160009054906101000a900473ffffffffffffffffffffffffffffffffffffffff16908060010180546119ad90613c6f565b80601f01602080910402602001604051908101604052809291908181526020018280546119d990613c6f565b8015611a265780601f106119fb57610100808354040283529160200191611a26565b820191906000526020600020905b815481529060010190602001808311611a0957829003601f168201915b505050505090806002018054611a3b90613c6f565b80601f0160208091040260200160405190810160405280929190818152602001828054611a6790613c6f565b8015611ab45780601f10611a8957610100808354040283529160200191611ab4565b820191906000526020600020905b815481529060010190602001808311611a9757829003601f168201915b505050505090806003018054611ac990613c6f565b80601f0160208091040260200160405190810160405280929190818152602001828054611af590613c6f565b8015611b425780601f10611b1757610100808354040283529160200191611b42565b820191906000526020600020905b815481529060010190602001808311611b2557829003601f168201915b5050505050905084565b600080611b5761297c565b9050611b78818585611b698589612723565b611b739190613e76565b612984565b600191505092915050565b6000600960003373ffffffffffffffffffffffffffffffffffffffff1673ffffffffffffffffffffffffffffffffffffffff16815260200190815260200160002060030160009054906101000a900460ff1690508015600960003373ffffffffffffffffffffffffffffffffffffffff1673ffffffffffffffffffffffffffffffffffffffff16815260200190815260200160002060030160006101000a81548160ff02191690831515021790555050565b6040518060a001604052803373ffffffffffffffffffffffffffffffffffffffff1681526020018381526020018281526020016001151581526020016000815250600960003373ffffffffffffffffffffffffffffffffffffffff1673ffffffffffffffffffffffffffffffffffffffff16815260200190815260200160002060008201518160000160006101000a81548173ffffffffffffffffffffffffffffffffffffffff021916908373ffffffffffffffffffffffffffffffffffffffff1602179055506020820151816001019080519060200190611d18929190612e59565b506040820151816002019080519060200190611d35929190612e59565b5060608201518160030160006101000a81548160ff021916908315150217905550608082015181600401559050505050565b6000600b60008381526020019081526020016000209050600280811115611d9157611d906139f4565b5b8160080160009054906101000a900460ff166002811115611db557611db46139f4565b5b14611df5576040517f08c379a0000000000000000000000000000000000000000000000000000000008152600401611dec90613dc4565b60405180910390fd5b3373ffffffffffffffffffffffffffffffffffffffff168160050160009054906101000a900473ffffffffffffffffffffffffffffffffffffffff1673ffffffffffffffffffffffffffffffffffffffff1614611e87576040517f08c379a0000000000000000000000000000000000000000000000000000000008152600401611e7e9061408b565b60405180910390fd5b60008160080160006101000a81548160ff02191690836002811115611eaf57611eae6139f4565b5b02179055505050565b60405180608001604052803373ffffffffffffffffffffffffffffffffffffffff16815260200184815260200183815260200182815250600c60003373ffffffffffffffffffffffffffffffffffffffff1673ffffffffffffffffffffffffffffffffffffffff16815260200190815260200160002060008201518160000160006101000a81548173ffffffffffffffffffffffffffffffffffffffff021916908373ffffffffffffffffffffffffffffffffffffffff1602179055506020820151816001019080519060200190611f91929190612e59565b506040820151816002019080519060200190611fae929190612e59565b506060820151816003019080519060200190611fcb929190612e59565b50905050505050565b600a600082815260200190815260200160002060050160009054906101000a900460ff1615600a600083815260200190815260200160002060050160006101000a81548160ff02191690831515021790555050565b600c60003373ffffffffffffffffffffffffffffffffffffffff1673ffffffffffffffffffffffffffffffffffffffff168152602001908152602001600020600080820160006101000a81549073ffffffffffffffffffffffffffffffffffffffff02191690556001820160006120a09190612edf565b6002820160006120b09190612edf565b6003820160006120c09190612edf565b5050565b60075481565b600960003373ffffffffffffffffffffffffffffffffffffffff1673ffffffffffffffffffffffffffffffffffffffff168152602001908152602001600020600080820160006101000a81549073ffffffffffffffffffffffffffffffffffffffff02191690556001820160006121419190612edf565b6002820160006121519190612edf565b6003820160006101000a81549060ff021916905560048201600090555050565b60008060008373ffffffffffffffffffffffffffffffffffffffff1673ffffffffffffffffffffffffffffffffffffffff168152602001908152602001600020549050919050565b600680546121c690613c6f565b80601f01602080910402602001604051908101604052809291908181526020018280546121f290613c6f565b801561223f5780601f106122145761010080835404028352916020019161223f565b820191906000526020600020905b81548152906001019060200180831161222257829003601f168201915b505050505081565b6000600854905090565b600560009054906101000a900473ffffffffffffffffffffffffffffffffffffffff1681565b60606004805461228690613c6f565b80601f01602080910402602001604051908101604052809291908181526020018280546122b290613c6f565b80156122ff5780601f106122d4576101008083540402835291602001916122ff565b820191906000526020600020905b8154815290600101906020018083116122e257829003601f168201915b5050505050905090565b6000600b6000838152602001908152602001600020905060016002811115612334576123336139f4565b5b8160080160009054906101000a900460ff166002811115612358576123576139f4565b5b14612398576040517f08c379a000000000000000000000000000000000000000000000000000000000815260040161238f90613cec565b60405180910390fd5b3373ffffffffffffffffffffffffffffffffffffffff168160040160009054906101000a900473ffffffffffffffffffffffffffffffffffffffff1673ffffffffffffffffffffffffffffffffffffffff161461242a576040517f08c379a00000000000000000000000000000000000000000000000000000000081526004016124219061411d565b60405180910390fd5b806002015461243833612171565b1015612479576040517f08c379a000000000000000000000000000000000000000000000000000000000815260040161247090613f18565b60405180910390fd5b6124ab8160060160009054906101000a900473ffffffffffffffffffffffffffffffffffffffff168260010154612700565b50600081600201819055505050565b6000600754905090565b6000806124cf61297c565b905060006124dd8286612723565b905083811015612522576040517f08c379a0000000000000000000000000000000000000000000000000000000008152600401612519906141af565b60405180910390fd5b61252f8286868403612984565b60019250505092915050565b600b60205280600052604060002060009150905080600101549080600201549080600301805461256a90613c6f565b80601f016020809104026020016040519081016040528092919081815260200182805461259690613c6f565b80156125e35780601f106125b8576101008083540402835291602001916125e3565b820191906000526020600020905b8154815290600101906020018083116125c657829003601f168201915b5050505050908060040160009054906101000a900473ffffffffffffffffffffffffffffffffffffffff16908060050160009054906101000a900473ffffffffffffffffffffffffffffffffffffffff16908060060160009054906101000a900473ffffffffffffffffffffffffffffffffffffffff169080600701805461266a90613c6f565b80601f016020809104026020016040519081016040528092919081815260200182805461269690613c6f565b80156126e35780601f106126b8576101008083540402835291602001916126e3565b820191906000526020600020905b8154815290600101906020018083116126c657829003601f168201915b5050505050908060080160009054906101000a900460ff16905088565b60008061270b61297c565b9050612718818585612bd9565b600191505092915050565b6000600160008473ffffffffffffffffffffffffffffffffffffffff1673ffffffffffffffffffffffffffffffffffffffff16815260200190815260200160002060008373ffffffffffffffffffffffffffffffffffffffff1673ffffffffffffffffffffffffffffffffffffffff16815260200190815260200160002054905092915050565b6000600b600083815260200190815260200160002090506002808111156127d4576127d36139f4565b5b8160080160009054906101000a900460ff1660028111156127f8576127f76139f4565b5b14612838576040517f08c379a000000000000000000000000000000000000000000000000000000000815260040161282f90613dc4565b60405180910390fd5b3373ffffffffffffffffffffffffffffffffffffffff16600d60003373ffffffffffffffffffffffffffffffffffffffff1673ffffffffffffffffffffffffffffffffffffffff16815260200190815260200160002060010160009054906101000a900473ffffffffffffffffffffffffffffffffffffffff1673ffffffffffffffffffffffffffffffffffffffff1614612908576040517f08c379a00000000000000000000000000000000000000000000000000000000081526004016128ff9061421b565b60405180910390fd5b338160060160006101000a81548173ffffffffffffffffffffffffffffffffffffffff021916908373ffffffffffffffffffffffffffffffffffffffff16021790555060028160080160006101000a81548160ff02191690836002811115612973576129726139f4565b5b02179055505050565b600033905090565b600073ffffffffffffffffffffffffffffffffffffffff168373ffffffffffffffffffffffffffffffffffffffff16036129f3576040517f08c379a00000000000000000000000000000000000000000000000000000000081526004016129ea906142ad565b60405180910390fd5b600073ffffffffffffffffffffffffffffffffffffffff168273ffffffffffffffffffffffffffffffffffffffff1603612a62576040517f08c379a0000000000000000000000000000000000000000000000000000000008152600401612a599061433f565b60405180910390fd5b80600160008573ffffffffffffffffffffffffffffffffffffffff1673ffffffffffffffffffffffffffffffffffffffff16815260200190815260200160002060008473ffffffffffffffffffffffffffffffffffffffff1673ffffffffffffffffffffffffffffffffffffffff168152602001908152602001600020819055508173ffffffffffffffffffffffffffffffffffffffff168373ffffffffffffffffffffffffffffffffffffffff167f8c5be1e5ebec7d5bd14f71427d1e84f3dd0314c0f7b2291e5b200ac8c7c3b92583604051612b409190613597565b60405180910390a3505050565b6000612b598484612723565b90507fffffffffffffffffffffffffffffffffffffffffffffffffffffffffffffffff8114612bd35781811015612bc5576040517f08c379a0000000000000000000000000000000000000000000000000000000008152600401612bbc906143ab565b60405180910390fd5b612bd28484848403612984565b5b50505050565b600073ffffffffffffffffffffffffffffffffffffffff168373ffffffffffffffffffffffffffffffffffffffff1603612c48576040517f08c379a0000000000000000000000000000000000000000000000000000000008152600401612c3f9061443d565b60405180910390fd5b600073ffffffffffffffffffffffffffffffffffffffff168273ffffffffffffffffffffffffffffffffffffffff1603612cb7576040517f08c379a0000000000000000000000000000000000000000000000000000000008152600401612cae906144cf565b60405180910390fd5b612cc2838383612e4f565b60008060008573ffffffffffffffffffffffffffffffffffffffff1673ffffffffffffffffffffffffffffffffffffffff16815260200190815260200160002054905081811015612d48576040517f08c379a0000000000000000000000000000000000000000000000000000000008152600401612d3f90614561565b60405180910390fd5b8181036000808673ffffffffffffffffffffffffffffffffffffffff1673ffffffffffffffffffffffffffffffffffffffff16815260200190815260200160002081905550816000808573ffffffffffffffffffffffffffffffffffffffff1673ffffffffffffffffffffffffffffffffffffffff168152602001908152602001600020600082825401925050819055508273ffffffffffffffffffffffffffffffffffffffff168473ffffffffffffffffffffffffffffffffffffffff167fddf252ad1be2c89b69c2b068fc378daa952ba7f163c4a11628f55a4df523b3ef84604051612e369190613597565b60405180910390a3612e49848484612e54565b50505050565b505050565b505050565b828054612e6590613c6f565b90600052602060002090601f016020900481019282612e875760008555612ece565b82601f10612ea057805160ff1916838001178555612ece565b82800160010185558215612ece579182015b82811115612ecd578251825591602001919060010190612eb2565b5b509050612edb9190612f6c565b5090565b508054612eeb90613c6f565b6000825580601f10612efd5750612f1c565b601f016020900490600052602060002090810190612f1b9190612f6c565b5b50565b828054828255906000526020600020908101928215612f5b579160200282015b82811115612f5a578251825591602001919060010190612f3f565b5b509050612f689190612f6c565b5090565b5b80821115612f85576000816000905550600101612f6d565b5090565b6000604051905090565b600080fd5b600080fd5b600080fd5b600080fd5b6000601f19601f8301169050919050565b7f4e487b7100000000000000000000000000000000000000000000000000000000600052604160045260246000fd5b612ff082612fa7565b810181811067ffffffffffffffff8211171561300f5761300e612fb8565b5b80604052505050565b6000613022612f89565b905061302e8282612fe7565b919050565b600067ffffffffffffffff82111561304e5761304d612fb8565b5b61305782612fa7565b9050602081019050919050565b82818337600083830152505050565b600061308661308184613033565b613018565b9050828152602081018484840111156130a2576130a1612fa2565b5b6130ad848285613064565b509392505050565b600082601f8301126130ca576130c9612f9d565b5b81356130da848260208601613073565b91505092915050565b6000819050919050565b6130f6816130e3565b811461310157600080fd5b50565b600081359050613113816130ed565b92915050565b600080600080600060a0868803121561313557613134612f93565b5b600086013567ffffffffffffffff81111561315357613152612f98565b5b61315f888289016130b5565b955050602086013567ffffffffffffffff8111156131805761317f612f98565b5b61318c888289016130b5565b945050604086013567ffffffffffffffff8111156131ad576131ac612f98565b5b6131b9888289016130b5565b93505060606131ca88828901613104565b925050608086013567ffffffffffffffff8111156131eb576131ea612f98565b5b6131f7888289016130b5565b9150509295509295909350565b600081519050919050565b600082825260208201905092915050565b60005b8381101561323e578082015181840152602081019050613223565b8381111561324d576000848401525b50505050565b600061325e82613204565b613268818561320f565b9350613278818560208601613220565b61328181612fa7565b840191505092915050565b600060208201905081810360008301526132a68184613253565b905092915050565b600073ffffffffffffffffffffffffffffffffffffffff82169050919050565b60006132d9826132ae565b9050919050565b6132e9816132ce565b81146132f457600080fd5b50565b600081359050613306816132e0565b92915050565b6000806040838503121561332357613322612f93565b5b6000613331858286016132f7565b925050602061334285828601613104565b9150509250929050565b60008115159050919050565b6133618161334c565b82525050565b600060208201905061337c6000830184613358565b92915050565b60006020828403121561339857613397612f93565b5b60006133a6848285016132f7565b91505092915050565b6133b8816132ce565b82525050565b6133c7816130e3565b82525050565b600060608201905081810360008301526133e78186613253565b90506133f660208301856133af565b61340360408301846133be565b949350505050565b60006020828403121561342157613420612f93565b5b600082013567ffffffffffffffff81111561343f5761343e612f98565b5b61344b848285016130b5565b91505092915050565b60006020828403121561346a57613469612f93565b5b600061347884828501613104565b91505092915050565b600060e082019050818103600083015261349b818a613253565b905081810360208301526134af8189613253565b905081810360408301526134c38188613253565b905081810360608301526134d78187613253565b90506134e660808301866133be565b6134f360a0830185613358565b61350060c08301846133af565b98975050505050505050565b60008060006060848603121561352557613524612f93565b5b600061353386828701613104565b935050602084013567ffffffffffffffff81111561355457613553612f98565b5b613560868287016130b5565b925050604084013567ffffffffffffffff81111561358157613580612f98565b5b61358d868287016130b5565b9150509250925092565b60006020820190506135ac60008301846133be565b92915050565b600060a0820190506135c760008301886133af565b81810360208301526135d98187613253565b905081810360408301526135ed8186613253565b90506135fc6060830185613358565b61360960808301846133be565b9695505050505050565b60008060006060848603121561362c5761362b612f93565b5b600061363a868287016132f7565b935050602061364b868287016132f7565b925050604061365c86828701613104565b9150509250925092565b6000806040838503121561367d5761367c612f93565b5b600061368b85828601613104565b925050602061369c85828601613104565b9150509250929050565b600067ffffffffffffffff8211156136c1576136c0612fb8565b5b602082029050602081019050919050565b600080fd5b60006136ea6136e5846136a6565b613018565b9050808382526020820190506020840283018581111561370d5761370c6136d2565b5b835b8181101561373657806137228882613104565b84526020840193505060208101905061370f565b5050509392505050565b600082601f83011261375557613754612f9d565b5b81356137658482602086016136d7565b91505092915050565b6000806000806080858703121561378857613787612f93565b5b600085013567ffffffffffffffff8111156137a6576137a5612f98565b5b6137b287828801613740565b945050602085013567ffffffffffffffff8111156137d3576137d2612f98565b5b6137df878288016130b5565b93505060406137f0878288016132f7565b925050606085013567ffffffffffffffff81111561381157613810612f98565b5b61381d878288016130b5565b91505092959194509250565b600060ff82169050919050565b61383f81613829565b82525050565b600060208201905061385a6000830184613836565b92915050565b600060808201905061387560008301876133af565b81810360208301526138878186613253565b9050818103604083015261389b8185613253565b905081810360608301526138af8184613253565b905095945050505050565b600080604083850312156138d1576138d0612f93565b5b600083013567ffffffffffffffff8111156138ef576138ee612f98565b5b6138fb858286016130b5565b925050602083013567ffffffffffffffff81111561391c5761391b612f98565b5b613928858286016130b5565b9150509250929050565b60008060006060848603121561394b5761394a612f93565b5b600084013567ffffffffffffffff81111561396957613968612f98565b5b613975868287016130b5565b935050602084013567ffffffffffffffff81111561399657613995612f98565b5b6139a2868287016130b5565b925050604084013567ffffffffffffffff8111156139c3576139c2612f98565b5b6139cf868287016130b5565b9150509250925092565b60006020820190506139ee60008301846133af565b92915050565b7f4e487b7100000000000000000000000000000000000000000000000000000000600052602160045260246000fd5b60038110613a3457613a336139f4565b5b50565b6000819050613a4582613a23565b919050565b6000613a5582613a37565b9050919050565b613a6581613a4a565b82525050565b600061010082019050613a81600083018b6133be565b613a8e602083018a6133be565b8181036040830152613aa08189613253565b9050613aaf60608301886133af565b613abc60808301876133af565b613ac960a08301866133af565b81810360c0830152613adb8185613253565b9050613aea60e0830184613a5c565b9998505050505050505050565b60008060408385031215613b0e57613b0d612f93565b5b6000613b1c858286016132f7565b9250506020613b2d858286016132f7565b9150509250929050565b7f4f6e6c792072657374617572616e74206f776e6572732063616e20616464206660008201527f6f6f64206974656d730000000000000000000000000000000000000000000000602082015250565b6000613b9360298361320f565b9150613b9e82613b37565b604082019050919050565b60006020820190508181036000830152613bc281613b86565b9050919050565b7f4e487b7100000000000000000000000000000000000000000000000000000000600052601160045260246000fd5b6000613c03826130e3565b91507fffffffffffffffffffffffffffffffffffffffffffffffffffffffffffffffff8203613c3557613c34613bc9565b5b600182019050919050565b7f4e487b7100000000000000000000000000000000000000000000000000000000600052602260045260246000fd5b60006002820490506001821680613c8757607f821691505b602082108103613c9a57613c99613c40565b5b50919050565b7f4f72646572206d75737420626520636f6d706c65746564000000000000000000600082015250565b6000613cd660178361320f565b9150613ce182613ca0565b602082019050919050565b60006020820190508181036000830152613d0581613cc9565b9050919050565b7f4f6e6c7920637573746f6d65722063616e2061646420636f6d6d656e74000000600082015250565b6000613d42601d8361320f565b9150613d4d82613d0c565b602082019050919050565b60006020820190508181036000830152613d7181613d35565b9050919050565b7f4f72646572206d7573742062652070656e64696e670000000000000000000000600082015250565b6000613dae60158361320f565b9150613db982613d78565b602082019050919050565b60006020820190508181036000830152613ddd81613da1565b9050919050565b7f4f6e6c792072657374617572616e74206f776e65722063616e2061646420646560008201527f6c69766572792066656500000000000000000000000000000000000000000000602082015250565b6000613e40602a8361320f565b9150613e4b82613de4565b604082019050919050565b60006020820190508181036000830152613e6f81613e33565b9050919050565b6000613e81826130e3565b9150613e8c836130e3565b9250827fffffffffffffffffffffffffffffffffffffffffffffffffffffffffffffffff03821115613ec157613ec0613bc9565b5b828201905092915050565b7f496e73756666696369656e7420746f6b656e2062616c616e6365000000000000600082015250565b6000613f02601a8361320f565b9150613f0d82613ecc565b602082019050919050565b60006020820190508181036000830152613f3181613ef5565b9050919050565b7f437573746f6d6572206d75737420657869737400000000000000000000000000600082015250565b6000613f6e60138361320f565b9150613f7982613f38565b602082019050919050565b60006020820190508181036000830152613f9d81613f61565b9050919050565b7f52657374617572616e74206d7573742065786973740000000000000000000000600082015250565b6000613fda60158361320f565b9150613fe582613fa4565b602082019050919050565b6000602082019050818103600083015261400981613fcd565b9050919050565b7f4e487b7100000000000000000000000000000000000000000000000000000000600052603260045260246000fd5b7f4f6e6c7920637573746f6d65722063616e2063616e63656c206f726465720000600082015250565b6000614075601e8361320f565b91506140808261403f565b602082019050919050565b600060208201905081810360008301526140a481614068565b9050919050565b7f4f6e6c792072657374617572616e74206f776e65722063616e2070617920636f60008201527f7572726965720000000000000000000000000000000000000000000000000000602082015250565b600061410760268361320f565b9150614112826140ab565b604082019050919050565b60006020820190508181036000830152614136816140fa565b9050919050565b7f45524332303a2064656372656173656420616c6c6f77616e63652062656c6f7760008201527f207a65726f000000000000000000000000000000000000000000000000000000602082015250565b600061419960258361320f565b91506141a48261413d565b604082019050919050565b600060208201905081810360008301526141c88161418c565b9050919050565b7f436f757272696572206d75737420657869737400000000000000000000000000600082015250565b600061420560138361320f565b9150614210826141cf565b602082019050919050565b60006020820190508181036000830152614234816141f8565b9050919050565b7f45524332303a20617070726f76652066726f6d20746865207a65726f2061646460008201527f7265737300000000000000000000000000000000000000000000000000000000602082015250565b600061429760248361320f565b91506142a28261423b565b604082019050919050565b600060208201905081810360008301526142c68161428a565b9050919050565b7f45524332303a20617070726f766520746f20746865207a65726f20616464726560008201527f7373000000000000000000000000000000000000000000000000000000000000602082015250565b600061432960228361320f565b9150614334826142cd565b604082019050919050565b600060208201905081810360008301526143588161431c565b9050919050565b7f45524332303a20696e73756666696369656e7420616c6c6f77616e6365000000600082015250565b6000614395601d8361320f565b91506143a08261435f565b602082019050919050565b600060208201905081810360008301526143c481614388565b9050919050565b7f45524332303a207472616e736665722066726f6d20746865207a65726f20616460008201527f6472657373000000000000000000000000000000000000000000000000000000602082015250565b600061442760258361320f565b9150614432826143cb565b604082019050919050565b600060208201905081810360008301526144568161441a565b9050919050565b7f45524332303a207472616e7366657220746f20746865207a65726f206164647260008201527f6573730000000000000000000000000000000000000000000000000000000000602082015250565b60006144b960238361320f565b91506144c48261445d565b604082019050919050565b600060208201905081810360008301526144e8816144ac565b9050919050565b7f45524332303a207472616e7366657220616d6f756e742065786365656473206260008201527f616c616e63650000000000000000000000000000000000000000000000000000602082015250565b600061454b60268361320f565b9150614556826144ef565b604082019050919050565b6000602082019050818103600083015261457a8161453e565b905091905056fea2646970667358221220571c260fec970c7fb9afb5e7d75a37a29fb0b5d462bafda0f0b4eccec421a03e64736f6c634300080e0033",
  "linkReferences": {},
  "deployedLinkReferences": {}
}